:100000000C946A000C9492000C9492000C94920050
:100010000C9492000C9492000C9492000C94920018
:100020000C9492000C9492000C9492000C94920008
:100030000C9492000C9492000C9492000C949200F8
:100040000C94B9050C9492000C9492000C949200BC
:100050000C9492000C9492000C9492000C949200D8
:100060000C9492000C949200BD06BD085409F90945
:100070009E0A190B8C0C030E0000000025002800BE
:100080002B00040404040404040402020202020219
:10009000030303030303010204081020408001024C
:1000A00004081020010204081020000000080002CB
:1000B0000100000304070000000000000000000031
:1000C0000000230026002900000000002400270073
:1000D0002A008C0E11241FBECFEFD8E0DEBFCDBFAB
:1000E00011E0A0E0B1E0ECE1F3E202C005900D9276
:1000F000A03DB107D9F722E0A0EDB1E001C01D920B
:10010000AE34B207E1F710E0CAE6D0E004C02197B0
:10011000FE010E947111C936D107C9F70E9403067A
:100120000C948C110C94000040E0682F8DEE91E04F
:100130000C940D04009769F0FC0101900020E9F790
:100140003197AF01481B590BBC018DEE91E00C9427
:100150006F0380E090E008958F929F92AF92BF92DC
:100160000F931F93CF93DF93CDB7DEB7A1970FB651
:10017000F894DEBF0FBECDBF19A2423008F44AE0AA
:100180008E010F5D1F4F842E912CA12CB12CA50147
:1001900094010E94FD0EE62FB901CA010150110918
:1001A000EA3014F4E05D01C0E95CD801EC93232B44
:1001B000242B252B61F7C8010E949A00A1960FB647
:1001C000F894DEBF0FBECDBFDF91CF911F910F918D
:1001D000BF90AF909F908F900895CF93DF93EC01E5
:1001E000698718860E94A303882319F08885836095
:1001F00088870E94AD056A837B838C839D83DF9112
:10020000CF910895CF92DF92EF92FF921F93CF93F9
:10021000DF93EC0188858B7F8887CE010E94A30342
:10022000182F888586958170181759F00E94AD05A2
:100230006A837B838C839D83988582E08927888766
:100240002AC00E94AD05CA80DB80EC80FD80AB0136
:10025000BC014C195D096E097F098E819F81A0E068
:10026000B0E0481759076A077B07A8F088858170B6
:10027000181789F00E94AD056A837B838C839D8368
:10028000988581E08927846088870E94AD056A8708
:100290007B878C879D87888582FB882780F9DF9103
:1002A000CF911F91FF90EF90DF90CF900895FC01C8
:1002B000808580FD04C082FB882780F9089580E056
:1002C000089581E00E9494008BE39FE10197F1F78C
:1002D00008950C949A00643008F063E09091000255
:1002E000691710F06FEF690FE62FF0E0E351FE4F52
:1002F0009489890F80680C9494008F929F92AF929A
:10030000BF92CF92DF92EF92FF920F931F93CF9302
:10031000DF936B017C01142F9B01AC010E946C11D7
:10032000882319F083EC91E027C046015701E89437
:10033000B7F82FEF3FEF4FE75FE7C501B4010E9429
:100340006C1181110DC02FEF3FEF4FE75FE7C50143
:10035000B4010E949B0F18161CF487EC91E00CC0AE
:100360002FEF3FEF4FE75FE4C701B6010E94FA109D
:10037000181684F48BEC91E0DF91CF911F910F91CF
:10038000FF90EF90DF90CF90BF90AF909F908F90B5
:100390000C949A002FEF3FEF4FE75FECC701B601D7
:1003A0000E949B0F87FDE6CF20E030E0A901C70146
:1003B000B6010E949B0F87FF0DC041E06DE28DEEFC
:1003C00091E00E940D04F7FAF094F7F8F094C1E080
:1003D000D0E002C0C0E0D0E000E060E070E080E08B
:1003E0009FE3101741F020E030E040E251E40E942A
:1003F000A00F0F5FF6CFA70196010E942F0F6B0190
:100400007C010E9419104B015C014AE00E94AC0083
:10041000C80FD91F1123B9F1C501B4010E944810BA
:100420009B01AC01C701B6010E942E0F6B017C013C
:1004300041E06EE28DEE91E00E940D04219620E0F5
:1004400030E040E251E4C701B6010E94FF104B01C9
:100450005C010E9419106B01E12CF12C4AE0C701EC
:10046000B6010E94AC00C80FD91FC701B6010E9497
:1004700048109B01AC01C501B4010E942E0F6B0115
:100480007C011150E1F6CE01DF91CF911F910F91C8
:10049000FF90EF90DF90CF90BF90AF909F908F90A4
:1004A0000895CF92DF92EF92FF9297FF18C06B01F1
:1004B0007C0141E06DE28DEE91E00E940D04662723
:1004C0007727CB016C197D098E099F094AE00E94AC
:1004D000AC000196FF90EF90DF90CF9008954AE036
:1004E000FF90EF90DF90CF900C94AC00833081F0C0
:1004F00028F4813099F08230A1F008958730A9F076
:100500008830B9F08430D1F4809180008F7D03C0B1
:10051000809180008F7780938000089584B58F77D5
:1005200002C084B58F7D84BD08958091B0008F771F
:1005300003C08091B0008F7D8093B00008951F9319
:10054000CF93DF93282F30E0F901E655FF4F8491D8
:10055000F901EA56FF4FD491F901EE57FF4FC491CC
:10056000CC23C1F0162F81110E947602EC2FF0E00F
:10057000EE0FFF1FE858FF4FA591B4919FB7F89475
:10058000111104C08C91D095D82302C0EC91DE2BC0
:10059000DC939FBFDF91CF911F910895CF93DF939D
:1005A000823028F09091FC0198609093FC01809338
:1005B00000021092010280E48093020280E18093A5
:1005C000030280E58093040261E08091F1010E94C2
:1005D000ED048091F2018F3F19F061E00E94ED047B
:1005E00061E08091F3010E94ED04CDEED1E09E0127
:1005F0002D5E31408091FC0184FD03C084E090E0D9
:1006000002C088E090E02196281739072CF461E0B9
:100610008E810E94ED04EBCF8BE39DE00197F1F713
:1006200060E08091F1010E949F0260E08091F301FF
:100630000E949F028091F2018F3F19F060E00E94BA
:100640009F028091FC0184FD20C063E08DEE91E06B
:100650000E94E003CBE4D6E4CE010197F1F763E01A
:100660008DEE91E00E94E0032197F1F763E08DEEBB
:1006700091E00E94E00383E592E00197F1F762E0E8
:100680008DEE91E00E94E00315C080620E9494000C
:100690008BE496E40197F1F78091FC0180620E945F
:1006A000940083E592E00197F1F78091FC0180626C
:1006B0000E9494008091FC0180620E94940084E07A
:1006C0008093FD018CE00E9494000E94610182E011
:1006D0008093FE0186E0DF91CF910C949400CF923D
:1006E000DF92EF92FF920F931F93CF93DF936C01F2
:1006F0007A018B01C0E0D0E0CE15DF0581F0D80192
:100700006D918D01D601ED91FC910190F081E02D6C
:10071000C6010995892B11F02196EECF7E01C70104
:10072000DF91CF911F910F91FF90EF90DF90CF90CD
:100730000895089580E090E008950E948711862F23
:10074000642F0C94ED04CF93DF93FC01218530E0FE
:10075000F901E655FF4F8491F901EA56FF4FD49114
:10076000F901EE57FF4FC491CC2379F081110E941B
:100770007602EC2FF0E0EE0FFF1FE254FF4FA59141
:10078000B491EC91ED2381E009F480E08170DF9178
:10079000CF910895CF93DF93EC0160E08E810E94AA
:1007A0009F0261E08E810E949F0260E08E810E9424
:1007B0009F028BE891E00197F1F7DF91CF910895C7
:1007C000CF92DF92EF92FF920F931F93CF93DF931D
:1007D0006C017C0187E0E80EF11CC0E0D0E0062F40
:1007E00010E0B8010C2E02C0759567950A94E2F7E7
:1007F0006170F70181917F010E949F022196C430B0
:10080000D10579F7C601DF91CF911F910F91FF902C
:10081000EF90DF90CF900C94CA03CF92DF92EF92CB
:10082000FF920F931F93CF93DF93EC01F62E642F6B
:100830008C810E949F028D818F3F19F060E00E94A1
:100840009F028F850F2D10E084FF25C06E0187E089
:10085000C80ED11CE12CF12CB8010E2C02C07595EC
:1008600067950A94E2F76170F60181916F010E9429
:100870009F02FFEFEF1AFF0A88E0E816F10461F724
:10088000CE01DF91CF911F910F91FF90EF90DF90FC
:10089000CF900C94CA03B80184E0759567958A954A
:1008A000E1F7CE010E94E0036F2DCE01DF91CF91E1
:1008B0001F910F91FF90EF90DF90CF900C94E00389
:1008C00041E00E940D0481E090E00895AF92BF9254
:1008D000CF92DF92EF92FF920F931F93CF93DF930C
:1008E0008091D0019091D10181309105D9F50E947C
:1008F000AD05DC01CB019C01AD0160E070E080E062
:1009000090E0A0903D02B0903E02C0903F02D09097
:100910004002E0904102F0904202009143021091A7
:1009200044020E947E11233F31404105510561057B
:1009300071058105910531F128F10E94AD05DC01B9
:10094000CB0180933D0290933E02A0933F02B0936F
:100950004002109241021092420210924302109201
:10096000440202C0892B71F461E08FE0DF91CF91E6
:100970001F910F91FF90EF90DF90CF90BF90AF90BD
:100980000C949F02DF91CF911F910F91FF90EF90F8
:10099000DF90CF90BF90AF90089585E092E00C94E7
:1009A000570183E192E00C94570181E292E00C94AC
:1009B00057018FE292E00C9457018FE292E00E947F
:1009C000020181E292E00E94020183E192E00E9432
:1009D000020185E092E00C940201CF93DF9390E056
:1009E000FC01EA56FF4F2491FC01EE57FF4F849122
:1009F000882361F190E0880F991FFC01E853FF4FB5
:100A0000C591D491FC01E858FF4FA591B4916111B3
:100A100009C09FB7F8948881209582238883EC9140
:100A20002E230BC0623061F49FB7F8948881322F77
:100A3000309583238883EC912E2B2C939FBF06C087
:100A40008FB7F894E8812E2B28838FBFDF91CF9149
:100A500008951F93CF93DF93182FEB0161E00E945D
:100A6000ED04209711F460E004C0CF3FD10539F4C4
:100A700061E0812FDF91CF911F910C949F02E12FB4
:100A8000F0E0E655FF4FE491E330F9F048F4E1304F
:100A9000B9F0E230A1F584B5806284BDC8BD34C030
:100AA000E730E9F0E83019F1E43049F58091800051
:100AB000806280938000D0938B00C0938A0024C012
:100AC00084B5806884BDC7BD1FC0809180008068E8
:100AD00080938000D0938900C093880015C08091D6
:100AE000B00080688093B000C093B3000DC08091C7
:100AF000B00080628093B000C093B40005C0C038DD
:100B0000D1050CF0B5CFAFCFDF91CF911F910895F4
:100B10003FB7F89480914A0290914B02A0914C0209
:100B2000B0914D0226B5A89B05C02F3F19F0019644
:100B3000A11DB11D3FBFBA2FA92F982F8827820F63
:100B4000911DA11DB11DBC01CD0142E0660F771FB3
:100B5000881F991F4A95D1F708952FB7F89460918F
:100B600046027091470280914802909149022FBF3E
:100B700008951F920F920FB60F9211242F933F9357
:100B80008F939F93AF93BF938091460290914702BA
:100B9000A0914802B09149023091450223E0230F11
:100BA0002D3720F40196A11DB11D05C026E8230FA5
:100BB0000296A11DB11D2093450280934602909399
:100BC0004702A0934802B093490280914A02909153
:100BD0004B02A0914C02B0914D020196A11DB11D96
:100BE00080934A0290934B02A0934C02B0934D0223
:100BF000BF91AF919F918F913F912F910F900FBE19
:100C00000F901F901895789484B5826084BD84B548
:100C1000816084BD85B5826085BD85B5816085BDF7
:100C200080916E00816080936E00109281008091AF
:100C30008100826080938100809181008160809337
:100C40008100809180008160809380008091B1005C
:100C500084608093B1008091B00081608093B00087
:100C600080917A00846080937A0080917A0082601B
:100C700080937A0080917A00816080937A008091DD
:100C80007A00806880937A001092C10061E08FE062
:100C90000E94ED0460E088E00E94ED0460E089E0DD
:100CA0000E94ED0460E08AE00E94ED0460E08DE0C7
:100CB0000E94ED0468E070E08FE292E00E94ED0097
:100CC00069E070E081E292E00E94ED006AE070E08D
:100CD00083E192E00E94ED006DE070E085E092E03B
:100CE0000E94ED008FE090E09093360280933502F1
:100CF000909328028093270290931A0280931902FE
:100D000090930C0280930B0280E090E0A8ECB1E499
:100D10008093DA019093DB01A093DC01B093DD01B5
:100D200061E085E00E94ED0461E086E00E94ED0450
:100D300061E087E00E94ED0460E085E00E949F0290
:100D400060E086E00E949F0260E070E087E00E9421
:100D5000290582E00E94CE0201E010E022242394C3
:100D6000312CE091EB01F091EC01E830F10508F055
:100D7000CBC7EC5CFF4F0C9471110E946101809114
:100D8000EB019091EC01892B09F0BEC70E94DD04B4
:100D90000E94660460E080E00E946B018CE191E0BB
:100DA0000E9469010E9488054B015C0184E6C82EFF
:100DB000D12CE12CF12C0E948805DC01CB01881993
:100DC0009909AA09BB09883E9340A105B10598F38A
:100DD00021E0C21AD108E108F10888EE880E83E00C
:100DE000981EA11CB11CC114D104E104F10419F72F
:100DF0006091DA017091DB018091DC019091DD015D
:100E000041E00E947D01CAE0D0E0C12CD12C7601E6
:100E100080E480937C0080917A00806480937A00E3
:100E200080917A0086FDFCCF6091780080917900F6
:100E300070E0782B072E000C880B990B0E944A104B
:100E400020E030E040EA50E40E94FF1020E030EC67
:100E50004FE754E40E94A00F2AE037ED43E25CE341
:100E60000E94A00F9B01AC01C701B6010E942F0F89
:100E70006B017C01219761F620E030E040E251E413
:100E80000E94A00F6093D6017093D7018093D80180
:100E90009093D90161E080E00E946B0181E291E0D2
:100EA0000E9469016091D6017091D7018091D801AB
:100EB0009091D90141E00E947D01C091D001D09173
:100EC000D1016C2F87E00E949F02C090DA01D09080
:100ED000DB01E090DC01F090DD018090D601909084
:100EE000D701A090D801B090D901A5019401C70104
:100EF000B6010E942E0F2B013C0120910001309180
:100F0000010140910201509103010E94FF100E94D3
:100F10001210673471052CF47093D3016093D201E1
:100F200006C086E490E09093D3018093D201209193
:100F30000401309105014091060150910701C30160
:100F4000B2010E94FF100E9412106F3F710509F05C
:100F50002CF47093D5016093D40106C08FEF90E01C
:100F60009093D5018093D4018091D4019091D501C3
:100F7000C89734F488E390E09093D5018093D4012E
:100F8000A5019401C701B6010E94FA107090DE011C
:100F900018167CF471100DC01093E2010093E1016A
:100FA0001092EA011092E9016091D2017091D3018F
:100FB0003BC0A5019401C701B6010E949B0F87FFAA
:100FC0000FC071100DC01092E2011092E101109358
:100FD000EA010093E9016091D4017091D50148C004
:100FE000772009F44DC08091E3019091E4012091B4
:100FF000E7013091E80181309105E9F421153105CF
:10100000D1F4A091DF01B091E00126E430E00E942C
:10101000771124E630E040E050E00E94DE0E30938D
:10102000E0012093DF01B90185E00E94290560E01D
:1010300070E086E023C02130310511F5892B01F5E0
:10104000A091E501B091E60127EC30E00E94771114
:1010500024E630E040E050E00E94DE0ECA01B90113
:10106000685C7F4F8F4F9F4F7093E6016093E5015F
:1010700086E00E94290560E070E085E00E94290575
:10108000209779F460E08AE00E946B0186E291E0AB
:101090000E94690161E08CE00E946B018DE291E0A9
:1010A00060C0219769F58091E1019091E201209162
:1010B000E9013091EA01009751F421153105A1F4BD
:1010C00060E08AE00E946B0186E291E042C08130DC
:1010D000910551F42115310539F460E08CE00E944E
:1010E0006B0187E391E035C02130310549F4892B4C
:1010F00039F460E08CE00E946B018EE391E029C03E
:101100008091DE01882379F18091E3019091E401DF
:10111000019769F48091E9019091EA01892B39F4F2
:1011200060E08CE00E946B0185E391E012C0809149
:10113000E7019091E8010197B1F48091E10190916C
:10114000E201892B81F460E08CE00E946B018CE36A
:1011500091E00E94690161E08CE00E946B0181E3F3
:1011600091E00E9469010E94D904882309F407CE06
:101170001093EC010093EB0102CE0E946101C2E0EA
:10118000D0E08091EB019091EC01019709F0BCC592
:101190000E94DD040E94660460E080E00E946B0112
:1011A00083E491E00E94690161E080E00E946B01AC
:1011B0008CE191E00E9469016091DA017091DB019C
:1011C0008091DC019091DD0141E00E947D010E944F
:1011D000CD04882309F45EC061E088E00E946B01C1
:1011E00081E591E00E9469010E94DD040E94D5041E
:1011F0008823B1F020E030E040E85FE36091DA015D
:101200007091DB018091DC019091DD010E942F0F34
:101210006093DA017093DB018093DC019093DD0130
:101220000E94D1048823B1F020E030E040E85FE381
:101230006091DA017091DB018091DC019091DD0118
:101240000E942E0F6093DA017093DB018093DC0122
:101250009093DD0161E080E00E946B018CE191E000
:101260000E9469016091DA017091DB018091DC01DB
:101270009091DD0141E00E947D010E94CD04882310
:1012800009F4B2CF61E088E00E946B0189E991E046
:101290000E9469010E94D904882309F472CFD09377
:1012A000EC01C093EB016DCF0E946101C3E0D0E07F
:1012B0008091EB019091EC01029709F025C50E9405
:1012C000DD040E94660460E080E00E946B0183E51B
:1012D00091E00E94690161E080E00E946B0184E678
:1012E00091E00E946901609100017091010180917B
:1012F00002019091030141E00E947D010E94CD0412
:10130000882309F46CC00E94DD040E94D504882360
:10131000B1F020E030E040E85FE3609100017091BF
:10132000010180910201909103010E942F0F6093AF
:1013300000017093010180930201909303010E94C8
:10134000D104882341F120E030E040E85FE3609180
:1013500000017091010180910201909103010E94AE
:101360002E0F6B017C0120E030E0A9010E949B0F51
:1013700087FD09C0C0920001D0920101E0920201F4
:10138000F092030108C01092000110920101109226
:1013900002011092030161E088E00E946B0181E587
:1013A00091E00E94690161E084E00E946B0160911C
:1013B000000170910101809102019091030141E0CF
:1013C0000E947D010E94CD04882309F49CCF61E036
:1013D00088E00E946B0189E991E00E9469010E9406
:1013E000D904882309F464CFD093EC01C093EB01B6
:1013F0005FCF0E946101C4E0D0E08091EB01909149
:10140000EC01039709F080C40E94DD040E94660489
:1014100060E080E00E946B0189E691E00E94690132
:1014200061E080E00E946B0184E691E00E94690126
:10143000609104017091050180910601909107016E
:1014400041E00E947D010E94CD04882309F46CC014
:101450000E94DD040E94D5048823B1F020E030E032
:1014600040E85FE3609104017091050180910601FD
:10147000909107010E942F0F609304017093050162
:1014800080930601909307010E94D104882341F1C3
:1014900020E030E040E85FE36091040170910501D5
:1014A00080910601909107010E942E0F6B017C0133
:1014B00020E030E0A9010E949B0F87FD09C0C09287
:1014C0000401D0920501E0920601F092070108C0E4
:1014D000109204011092050110920601109207016A
:1014E00061E088E00E946B0181E591E00E94690162
:1014F00061E084E00E946B0160910401709105013C
:10150000809106019091070141E00E947D010E94B7
:10151000CD04882309F49CCF61E088E00E946B0130
:1015200089E991E00E9469010E94D904882309F4A5
:1015300064CFD093EC01C093EB015FCF0E946101B7
:10154000C5E0D0E08091EB019091EC01049709F0A7
:10155000DBC30E94DD040E94660460E082E00E941A
:101560006B018AE791E00E9469018091DE0161E0F0
:10157000882331F087E00E946B0181E391E005C090
:1015800087E00E946B018DE291E00E9469010E9458
:10159000CD048823A1F161E08AE00E946B0181E51E
:1015A00091E00E946901FF24F3940E94DD040E94EF
:1015B000D5048111F092DE010E94D10481111092B4
:1015C000DE018091DE0161E0882331F087E00E9436
:1015D0006B0181E391E005C087E00E946B018DE221
:1015E00091E00E9469010E94CD048823F1F261E03C
:1015F0008AE00E946B0189E991E00E946901809173
:10160000DE01882351F00E94D904882309F49ACF7F
:10161000D093EC01C093EB0195CF0E94D9048823AD
:1016200009F490CF87E090E09093EC018093EB0178
:1016300089CF0E946101C6E0D0E08091EB019091DA
:10164000EC01059709F060C30E94DD040E94660466
:1016500060E082E00E946B018AE791E00E946901EC
:1016600061E080E00E946B0186E891E00E946901E0
:101670002091E1013091E2012130310539F0809172
:10168000E3019091E40181309105B1F561E086E0DC
:101690000E946B0181E391E00E94690161E08BE0AF
:1016A0000E946B016091DF017091E001072E000C38
:1016B000880B990B0E9451028091DF019091E0010B
:1016C00061E08436910531F48EE00E946B018DE873
:1016D00091E00DC00A9734F08DE00E946B018FE815
:1016E00091E005C08CE00E946B0182E991E00E94CC
:1016F00069016091E1011CC0232B11F0892BD9F401
:1017000061E086E00E946B018DE291E00E94690138
:1017100061E08BE00E946B0186E991E00E94690123
:101720006091D0017091D1016115710509F460E0FB
:1017300087E00E949F020E94CD04882309F4E2C042
:1017400061E089E00E946B0181E591E00E946901FE
:101750000E94DD040E94D9048823D9F08091E3011E
:101760009091E401019729F41092E4011092E301B1
:1017700010C03092E4012092E3011092E80110922F
:10178000E7011092EA011092E9011092E201109231
:10179000E1012091E1013091E2012130310539F080
:1017A0008091E3019091E4018130910539F461E089
:1017B00086E00E946B0181E391E012C0232B11F0BF
:1017C000892B81F461E086E00E946B018DE291E05B
:1017D0000E94690161E08BE00E946B0186E991E063
:1017E0000E9469010E94CD04882309F4B1CF809141
:1017F000E1019091E201019739F08091E30190912C
:10180000E401019709F065C00E94DD040E94D5043F
:10181000882361F08091DF019091E0018436910589
:101820002CF405969093E0018093DF010E94D1048F
:10183000882361F08091DF019091E001181619066C
:101840002CF405979093E0018093DF0161E089E03B
:101850000E946B018BE991E00E94690161E08BE0DD
:101860000E946B016091DF017091E001072E000C76
:10187000880B990B0E9451028091DF019091E00149
:1018800061E08436910531F48EE00E946B018DE8B1
:1018900091E00DC00A9734F08DE00E946B018FE853
:1018A00091E005C08CE00E946B0182E991E00E940A
:1018B00069010E94CD04882309F4A6CF61E089E084
:1018C0000E946B0189E991E00E94690180E090E04B
:1018D00002C081E090E02091E1013091E201232BF0
:1018E00049F02091E3013091E401232B19F0019795
:1018F00049F42ECF61E089E00E946B0189E991E013
:101900000E9469010E94D904882309F496CED093DD
:10191000EC01C093EB0191CE0E9461018091EB013B
:101920009091EC01069709F0EFC10E94DD040E943E
:10193000660460E082E00E946B018AE791E00E9409
:10194000690161E080E00E946B018DE991E00E94F5
:1019500069012091E9013091EA012130310539F026
:101960008091E7019091E80181309105D1F561E026
:1019700085E00E946B0181E391E00E94690161E0D2
:101980008AE00E946B016091E5017091E601072EEB
:10199000000C880B990B0E94510261E08DE00E94BF
:1019A0006B018091E5019091E60161E0843691053B
:1019B00031F48DE00E946B018DE891E00DC00A9733
:1019C00034F08CE00E946B018FE891E005C08BE061
:1019D0000E946B0182E991E00E9469016091E90136
:1019E0001CC0232B11F0892BD9F461E085E00E9403
:1019F0006B018DE291E00E94690161E08AE00E9442
:101A00006B0186E991E00E9469016091D0017091BB
:101A1000D1016115710509F460E087E00E949F0221
:101A20000E94CD04882309F4E2C061E088E00E94AE
:101A30006B0181E591E00E9469010E94DD040E9432
:101A4000D9048823D9F08091E7019091E8010197AA
:101A500029F41092E8011092E70110C03092E801D9
:101A60002092E7011092E4011092E3011092EA0142
:101A70001092E9011092E2011092E1012091E90136
:101A80003091EA012130310539F08091E7019091E0
:101A9000E8018130910539F461E085E00E946B0135
:101AA00081E391E012C0232B11F0892B81F461E0D6
:101AB00085E00E946B018DE291E00E94690161E086
:101AC0008AE00E946B0186E991E00E9469010E9410
:101AD000CD04882309F4B1CF8091E9019091EA0106
:101AE000019739F08091E7019091E801019709F0A1
:101AF00065C00E94DD040E94D504882361F08091B6
:101B0000E5019091E601843691052CF405969093B9
:101B1000E6018093E5010E94D104882361F0809161
:101B2000E5019091E601181619062CF4059790939B
:101B3000E6018093E50161E088E00E946B018BE99A
:101B400091E00E94690161E08AE00E946B0160916E
:101B5000E5017091E601072E000C880B990B0E949D
:101B600051028091E5019091E60161E08436910592
:101B700031F48DE00E946B018DE891E00DC00A9771
:101B800034F08CE00E946B018FE891E005C08BE09F
:101B90000E946B0182E991E00E9469010E94CD04DC
:101BA000882309F4A6CF61E088E00E946B0189E9EF
:101BB00091E00E94690180E090E002C081E090E045
:101BC0002091E9013091EA01232B49F02091E701AE
:101BD0003091E801232B19F0019749F42ECF61E0F1
:101BE00088E00E946B0189E991E00E9469010E94EE
:101BF000D904882309F492CE87E090E09093EC0119
:101C00008093EB018BCE0E9461018091EB0190915A
:101C1000EC01079709F078C00E94DD040E94660479
:101C200060E082E00E946B0183EA91E00E9469011A
:101C30008091D0019091D1018130910539F461E01A
:101C400084E00E946B0181EB91E008C0892B41F494
:101C500061E084E00E946B018AEB91E00E946901DF
:101C60000E94CD04882309F445C00E94DD040E942F
:101C7000D504882331F081E090E09093D1018093E6
:101C8000D0010E94D104882321F01092D10110923A
:101C9000D00161E08CE00E946B0181E591E00E943F
:101CA00069018091D0019091D1018130910539F481
:101CB00061E084E00E946B0181EB91E008C0892B18
:101CC00041F461E084E00E946B018AEB91E00E94A4
:101CD00069010E94CD04882341F261E08CE00E94FA
:101CE0006B0189E991E00E9469016091D00187E070
:101CF0000E949F020E94D904882309F486CF109283
:101D0000EC011092EB0181CF80E090E0892B09F487
:101D100028C80E94000025C8EDEEF1E0138212826F
:101D20008CE091E0918380838CE084838FEF8583C6
:101D30008BE0868384E0878383E0808782E08187ED
:101D400081E08287138614861586168617860E9480
:101D5000CE02EFE2F2E028E131E03183208312820B
:101D60001382148215828AE090E09783868310861E
:101D70001186E1E2F2E03183208312821382148221
:101D800015829783868310861186E3E1F2E0318322
:101D90002083128213821482158297838683108691
:101DA0001186E5E0F2E031832083128213821482EF
:101DB000158297838683108611860895052E97FBDA
:101DC0001EF400940E94F50E57FD07D00E94FD0EF0
:101DD00007FC03D04EF40C94F50E509540953095C9
:101DE00021953F4F4F4F5F4F089590958095709587
:101DF00061957F4F8F4F9F4F0895A1E21A2EAA1B26
:101E0000BB1BFD010DC0AA1FBB1FEE1FFF1FA217AA
:101E1000B307E407F50720F0A21BB30BE40BF50BA7
:101E2000661F771F881F991F1A9469F76095709530
:101E3000809590959B01AC01BD01CF010895A29FB3
:101E4000B001B39FC001A39F700D811D1124911D8E
:101E5000B29F700D811D1124911D08955058BB270C
:101E6000AA270E94460F0C94C0100E94B21038F0AE
:101E70000E94B91020F039F49F3F19F426F40C9415
:101E8000AF100EF4E095E7FB0C94A910E92F0E9427
:101E9000D11058F3BA17620773078407950720F02B
:101EA00079F4A6F50C94F3100EF4E0950B2EBA2FEE
:101EB000A02D0B01B90190010C01CA01A001112450
:101EC000FF27591B99F0593F50F4503E68F11A16FC
:101ED000F040A22F232F342F4427585FF3CF46958D
:101EE00037952795A795F0405395C9F77EF41F16AF
:101EF000BA0B620B730B840BBAF09150A1F0FF0F79
:101F0000BB1F661F771F881FC2F70EC0BA0F621F64
:101F1000731F841F48F4879577956795B795F79554
:101F20009E3F08F0B0CF9395880F08F09927EE0FE9
:101F30009795879508950E94851008F481E008958B
:101F40000E94B40F0C94C0100E94B91058F00E9467
:101F5000B21040F029F45F3F29F00C94A910511100
:101F60000C94F4100C94AF100E94D11068F39923D4
:101F7000B1F3552391F3951B550BBB27AA27621785
:101F80007307840738F09F5F5F4F220F331F441F92
:101F9000AA1FA9F335D00E2E3AF0E0E832D09150C6
:101FA0005040E695001CCAF72BD0FE2F29D0660FB3
:101FB000771F881FBB1F261737074807AB07B0E8F6
:101FC00009F0BB0B802DBF01FF2793585F4F3AF0FC
:101FD0009E3F510578F00C94A9100C94F4105F3FCB
:101FE000E4F3983ED4F3869577956795B795F79582
:101FF0009F5FC9F7880F911D9695879597F908956A
:10200000E1E0660F771F881FBB1F62177307840705
:10201000BA0720F0621B730B840BBA0BEE1F88F714
:10202000E09508950E9419106894B1110C94F41071
:1020300008950E94D91088F09F5798F0B92F9927DA
:10204000B751B0F0E1F0660F771F881F991F1AF0A3
:10205000BA95C9F714C0B13091F00E94F310B1E005
:1020600008950C94F310672F782F8827B85F39F004
:10207000B93FCCF3869577956795B395D9F73EF43C
:1020800090958095709561957F4F8F4F9F4F0895E4
:10209000E89409C097FB3EF4909580957095619502
:1020A0007F4F8F4F9F4F9923A9F0F92F96E9BB27B8
:1020B0009395F695879577956795B795F111F8CF34
:1020C000FAF4BB0F11F460FF1BC06F5F7F4F8F4F9F
:1020D0009F4F16C0882311F096E911C0772321F095
:1020E0009EE8872F762F05C0662371F096E8862F2D
:1020F00070E060E02AF09A95660F771F881FDAF784
:10210000880F9695879597F90895990F0008550FB0
:10211000AA0BE0E8FEEF16161706E807F907C0F06D
:1021200012161306E407F50798F0621B730B840B75
:10213000950B39F40A2661F0232B242B252B21F44F
:1021400008950A2609F4A140A6958FEF811D811DEF
:10215000089597F99F6780E870E060E008959FEF29
:1021600080EC089500240A9416161706180609062E
:10217000089500240A9412161306140605060895FD
:10218000092E0394000C11F4882352F0BB0F40F485
:10219000BF2B11F460FF04C06F5F7F4F8F4F9F4FC5
:1021A000089557FD9058440F551F59F05F3F71F047
:1021B0004795880F97FB991F61F09F3F79F08795AE
:1021C0000895121613061406551FF2CF4695F1DF37
:1021D00008C0161617061806991FF1CF86957105C7
:1021E000610508940895E894BB2766277727CB01FB
:1021F00097F908950E94851008F48FEF08950E94C2
:1022000012110C94C0100E94B21038F00E94B91044
:1022100020F0952311F00C94A9100C94AF10112408
:102220000C94F4100E94D11070F3959FC1F3950F98
:1022300050E0551F629FF001729FBB27F00DB11D4A
:10224000639FAA27F00DB11DAA1F649F6627B00DDA
:10225000A11D661F829F2227B00DA11D621F739FC3
:10226000B00DA11D621F839FA00D611D221F749FD1
:102270003327A00D611D231F849F600D211D822F18
:10228000762F6A2F11249F5750409AF0F1F088233F
:102290004AF0EE0FFF1FBB1F661F771F881F91506C
:1022A0005040A9F79E3F510580F00C94A9100C9462
:1022B000F4105F3FE4F3983ED4F3869577956795E5
:1022C000B795F795E7959F5FC1F7FE2B880F911D96
:1022D0009695879597F908950E948510880B990B1C
:1022E0000895EE0FFF1F0590F491E02D09940E94D0
:1022F0001F0FB7FF0895821B930B08952A193B09FE
:102300004C095D096E097F09800B910B089581E0EE
:0C23100090E0F8940C948C11F894FFCF2E
:10231C000000803F0000803F0000000060046F035D
:10232C009A03990300000000A3039F0353503A2023
:10233C000050563A2000447269766572004F46464A
:10234C00004F4E200020204865617400202046611B
:10235C006E20004E65772053657420506F696E7443
:10236C00003C004E65772050726F702E20476169DB
:10237C006E2048004B703A20004E65772050726FEB
:10238C00702E204761696E2046004D616E75616C40
:10239C00204D6F646500486561743A200025002566
:1023AC0020002520200020202020003E0046616EC9
:1023BC003A200044726976657220537461747573A7
:1023CC0000456E61626C6564200044697361626CE7
:1023DC006564006E616E00696E66006F7666000063
:00000001FF
